:100000000C941A010C9437010C9437010C943701AD
:100010000C9437010C9437010C9437010C94370180
:100020000C9437010C9437010C9437010C94370170
:100030000C9437010C9437010C9437010C94370160
:100040000C9437010C9437010C9437010C94370150
:100050000C943701000000000000005F0000000762
:10006000000700147F147F14242A7F2A1223130808
:10007000646236495522500005030000001C2241ED
:10008000000041221C00082A1C2A0808083E080813
:100090000050300000080808080800303000002038
:1000A000100804023E5149453E00427F4000426133
:1000B0005149462141454B311814127F10274545BF
:1000C00045393C4A494930017109050336494949D6
:1000D00036064949291E0036360000005636000013
:1000E00000081422411414141414412214080002AC
:1000F00001510906324979413E7E1111117E7F4935
:100100004949363E414141227F4141221C7F4949B4
:1001100049417F090901013E414151327F080808E8
:100120007F00417F41002040413F017F0814224170
:100130007F404040407F0204027F7F0408107F3EE2
:100140004141413E7F090909063E4151215E7F0937
:10015000192946464949493101017F01013F404083
:10016000403F1F2040201F7F2018207F6314081469
:10017000630304780403615149454300007F414112
:10018000020408102041417F0000040201020440E3
:1001900040404040000102040020545454787F48FD
:1001A0004444383844444420384444487F38545404
:1001B0005418087E090102081454543C7F080404B2
:1001C0007800447D40002040443D00007F102844DA
:1001D00000417F40007C041804787C0804047838CF
:1001E000444444387C14141408081414187C7C0803
:1001F0000404084854545420043F4440203C4040E8
:10020000207C1C2040201C3C4030403C44281028CE
:10021000440C5050503C4464544C44000836410057
:1002200000007F0000004136080008082A1C08086A
:100230001C2A080811241FBECFE5D8E0DEBFCDBFC1
:1002400010E0A0E6B0E0EEECF9E002C005900D92FF
:10025000A638B107D9F720E0A6E8B0E001C01D92AA
:10026000A938B207E1F70E9449030C94E5040C9405
:10027000000000000895813041F018F0823049F00C
:10028000089585B38F7E85BB089585B3877F85BB31
:10029000089585B3877F85BB0895813041F018F0BC
:1002A000823049F0089585B3806185BB089585B398
:1002B000886085BB089585B3886085BB0895CF931A
:1002C000DF93C82F1ABA85B3826085BB85B38E7F52
:1002D00085BB8C2F0E943B0185B3846085BB0E9447
:1002E0003901D9B385B38B7F85BB8C2F0E944D011B
:1002F0008D2FDF91CF910895CF93DF93D82FC62F05
:100300008C2F0E945F018823DCF38FEF8ABB85B3BB
:100310008C7F85BB8C2F0E943B01DBBB85B3846047
:1003200085BB0E94390185B38B7F85BB8C2F0E94D2
:100330004D01DF91CF910895CF93809187008295F1
:100340008695869583700E945F018823B4F31ABA5C
:1003500085B3836085BB809187008295869586955D
:1003600083700E943B0185B3846085BB0E94390184
:10037000C9B385B38B7F85BB8091870082958695B5
:10038000869583700E944D01809187008F5F8093D6
:1003900087008C2FCF910895CF93C82F809187002D
:1003A00082958695869583700E945F018823B4F3B9
:1003B0008FEF8ABB85B38D7F85BB85B3816085BB9D
:1003C000CBBB8091870082958695869583700E942D
:1003D0003B0185B3846085BB0E94390185B38B7F67
:1003E00085BB8091870082958695869583700E9453
:1003F0004D01809187008F5F80938700CF91089592
:1004000084B38F6184BB85B3886185BB0895FC018B
:1004100084910895CF930E940002C0E005C06C2F24
:100420008FE30E947C01CF5FC330C8F3CF91089562
:100430001F93CF93DF93D82F162F8093870060935D
:100440008600C0E00EC06C2F80E40E947C016C2FFF
:10045000812F886B0E947C016C2F80EC0E947C01B4
:10046000CF5FC23080F3CD2FC295C695C695C370BD
:100470008D2F8F736C2F80640E947C016C2F812FD5
:10048000886B0E947C01DF91CF911F910895CF93DB
:10049000DF93D0E00DC06D2F80E00E941802C0E015
:1004A00004C080E00E94CC01CF5FCC23D4F7DF5F93
:1004B000D83088F3DF91CF9108951F93CF93DF93C6
:1004C00010EE180FC0E0D0E012C0812F90E09C0128
:1004D000220F331F220F331F820F931F8C5A9F4FFF
:1004E0008C0F9D1F0E9407020E94CC012196C530EF
:1004F000D1055CF380E00E94CC01DF91CF911F9188
:100500000895CF93DF93EC0103C021960E945D0212
:1005100088818111FACFDF91CF9108950F931F93B6
:10052000CF93DF93D82FC62F162F169516951695B5
:10053000612F0E9418020E949C01612F8D2F0E9442
:1005400018020E949C01082F612F8D2F0E94180213
:10055000C77081E090E002C0880F991FCA95E2F74A
:10056000802B0E94CC01DF91CF911F910F910895B4
:10057000CF93DF93CDB7DEB760970FB6F894DEBFA9
:100580000FBECDBF4AE050E0BE016F5F7F4F0E94BB
:10059000A504CE0101960E94810260960FB6F894E0
:1005A000DEBF0FBECDBFDF91CF910895CF93C3E0E3
:1005B00009C06C2F80E00E94180280E690E00E9443
:1005C0008102CF5FC730A8F3CF910895FF920F93B8
:1005D0001F93CF93DF93F82E809388000E94D6025A
:1005E0008FEF8F0D8336B0F56F2D70E080E090E0D7
:1005F0000E94170420E030E048E450E40E947603B3
:100600000E94E803062F10E2D2E3C0E021C06D2F64
:100610008C2F0E948E02D150DF31C8F705C06D2F9C
:100620008C2F0E948E02CF5FC017C8F3005E05C0FA
:100630006D2F8C2F0E948E02DF5FD233C8F305C06E
:100640006D2F8C2F0E948E02CF5FC117C8F3105EF2
:10065000CC2314F784E6F8120AC006C06EE18C2F92
:100660000E948E02CF5F01C0C0E0CC23BCF7FF2008
:1006700039F009C062E38C2F0E948E02CF5F01C067
:10068000C0E0CC23BCF7DF91CF911F910F91FF9079
:1006900008950E940A020E94470260E080E00E94E2
:1006A000180288E790E00E94810260E080E40E94E6
:1006B00018028EE790E00E948102C0E014C060E062
:1006C0008EE10E9418028C2F90E00E94B80284E80C
:1006D00090E00E94810280918800C81719F08C2F49
:1006E0000E94E602C65FC53650F3FDCF0E948A0322
:1006F0000C946B040E94640458F00E945D0440F066
:1007000029F45F3F29F00C94540451110C949F0478
:100710000C945A040E947C0468F39923B1F3552386
:1007200091F3951B550BBB27AA2762177307840704
:1007300038F09F5F5F4F220F331F441FAA1FA9F39A
:1007400035D00E2E3AF0E0E832D091505040E69588
:10075000001CCAF72BD0FE2F29D0660F771F881FE9
:10076000BB1F261737074807AB07B0E809F0BB0BDC
:10077000802DBF01FF2793585F4F3AF09E3F5105F0
:1007800078F00C9454040C949F045F3FE4F3983E7B
:10079000D4F3869577956795B795F7959F5FC9F7D9
:1007A000880F911D9695879597F90895E1E0660F5A
:1007B000771F881FBB1F621773078407BA0720F0D3
:1007C000621B730B840BBA0BEE1F88F7E09508953C
:1007D0000E94840488F09F5798F0B92F9927B75149
:1007E000B0F0E1F0660F771F881F991F1AF0BA95D5
:1007F000C9F714C0B13091F00E949E04B1E0089591
:100800000C949E04672F782F8827B85F39F0B93F82
:10081000CCF3869577956795B395D9F73EF4909587
:100820008095709561957F4F8F4F9F4F0895E89405
:1008300009C097FB3EF490958095709561957F4F28
:100840008F4F9F4F9923A9F0F92F96E9BB279395D6
:10085000F695879577956795B795F111F8CFFAF4E6
:10086000BB0F11F460FF1BC06F5F7F4F8F4F9F4F17
:1008700016C0882311F096E911C0772321F09EE875
:10088000872F762F05C0662371F096E8862F70E0DB
:1008900060E02AF09A95660F771F881FDAF7880FB5
:1008A0009695879597F9089597F99F6780E870E086
:1008B00060E008959FEF80EC089500240A941616D6
:1008C000170618060906089500240A94121613063E
:1008D000140605060895092E0394000C11F48823CC
:1008E00052F0BB0F40F4BF2B11F460FF04C06F5FE8
:1008F0007F4F8F4F9F4F089557FD9058440F551FBE
:1009000059F05F3F71F04795880F97FB991F61F091
:100910009F3F79F087950895121613061406551F08
:10092000F2CF4695F1DF08C0161617061806991F74
:10093000F1CF86957105610508940895E894BB2769
:1009400066277727CB0197F908954532510520F4A2
:10095000423010F00C94B004FB011082CB010895DA
:10096000BB274A3031F4992322F4BDE2909581955A
:100970009F4F0C94BC04BB27FB015527AA27880F67
:10098000991FAA1FA41710F0A41B83955051B9F703
:10099000A05DAA3308F0A95DA193009779F7B11182
:1009A000B1931192CB010C94D504DC01FC01672FAB
:1009B00071917723E1F7329704C07C916D93708336
:0E09C0006291AE17BF07C8F30895F894FFCFF9
:1009CE002020202020202020202020202020202019
:1009DE002020202020202000447574793D0046728E
:0609EE0065713D002500CB
:00000001FF
