:100000000C941A010C9437010C9437010C943701AD
:100010000C9437010C9437010C9439010C9437017E
:100020000C9437010C9437010C9437010C94370170
:100030000C9437010C9437010C9437010C94370160
:100040000C9437010C9437010C9437010C94370150
:100050000C943701000000000000005F0000000762
:10006000000700147F147F14242A7F2A1223130808
:10007000646236495522500005030000001C2241ED
:10008000000041221C00082A1C2A0808083E080813
:100090000050300000080808080800303000002038
:1000A000100804023E5149453E00427F4000426133
:1000B0005149462141454B311814127F10274545BF
:1000C00045393C4A494930017109050336494949D6
:1000D00036064949291E0036360000005636000013
:1000E00000081422411414141414412214080002AC
:1000F00001510906324979413E7E1111117E7F4935
:100100004949363E414141227F4141221C7F4949B4
:1001100049417F090901013E414151327F080808E8
:100120007F00417F41002040413F017F0814224170
:100130007F404040407F0204027F7F0408107F3EE2
:100140004141413E7F090909063E4151215E7F0937
:10015000192946464949493101017F01013F404083
:10016000403F1F2040201F7F2018207F6314081469
:10017000630304780403615149454300007F414112
:10018000020408102041417F0000040201020440E3
:1001900040404040000102040020545454787F48FD
:1001A0004444383844444420384444487F38545404
:1001B0005418087E090102081454543C7F080404B2
:1001C0007800447D40002040443D00007F102844DA
:1001D00000417F40007C041804787C0804047838CF
:1001E000444444387C14141408081414187C7C0803
:1001F0000404084854545420043F4440203C4040E8
:10020000207C1C2040201C3C4030403C44281028CE
:10021000440C5050503C4464544C44000836410057
:1002200000007F0000004136080008082A1C08086A
:100230001C2A080811241FBECFE5D8E0DEBFCDBFC1
:1002400010E0A0E6B0E0ECE8FDE002C005900D9201
:10025000AA38B107D9F720E0AAE8B0E001C01D92A2
:10026000A639B207E1F70E94D7030C94C4060C9498
:1002700000001F920F920FB60F9211242F933F93FD
:100280004F935F936F937F938F939F93AF93BF939E
:10029000EF93FF930E942403FF91EF91BF91AF91E1
:1002A0009F918F917F916F915F914F913F912F918E
:1002B0000F900FBE0F901F901895FC0191B39F7B7C
:1002C00091BB9EB52081987F922B9EBD2EB59181CA
:1002D00030E4939FC0011124922F9F7B892B8EBD08
:1002E0001DBC1CBC17BC16BC89B7806289BF0895B1
:1002F0002EB530E4839FC00111242F7B822B8EBD4D
:10030000089586B597B508951DBC1CBC08950000DE
:100310000895813041F018F0823049F0089585B396
:100320008F7E85BB089585B3877F85BB089585B390
:10033000877F85BB0895813041F018F0823049F005
:10034000089585B3806185BB089585B3886085BBBA
:10035000089585B3886085BB0895CF93DF93C82F38
:100360001ABA85B3826085BB85B38E7F85BB8C2F1F
:100370000E94890185B3846085BB0E948701D9B33F
:1003800085B38B7F85BB8C2F0E949B018D2FDF91C6
:10039000CF910895CF93DF93D82FC62F8C2F0E9433
:1003A000AD018823DCF38FEF8ABB85B38C7F85BBDF
:1003B0008C2F0E948901DBBB85B3846085BB0E94C2
:1003C000870185B38B7F85BB8C2F0E949B01DF91BA
:1003D000CF910895CF9380918B00829586958695D5
:1003E00083700E94AD018823B4F31ABA85B3836089
:1003F00085BB80918B0082958695869583700E943F
:10040000890185B3846085BB0E948701C9B385B328
:100410008B7F85BB80918B008295869586958370B6
:100420000E949B0180918B008F5F80938B008C2FAB
:10043000CF910895CF93C82F80918B008295869598
:10044000869583700E94AD018823B4F38FEF8ABB39
:1004500085B38D7F85BB85B3816085BBCBBB809128
:100460008B0082958695869583700E94890185B35D
:10047000846085BB0E94870185B38B7F85BB80919B
:100480008B0082958695869583700E949B01809152
:100490008B008F5F80938B00CF91089584B38F6121
:1004A00084BB85B3886185BB0895FC018491089560
:1004B000CF930E944E02C0E005C06C2F8FE30E94D4
:1004C000CA01CF5FC330C8F3CF9108951F93CF9374
:1004D000DF93D82F162F80938B0060938A00C0E0A3
:1004E0000EC06C2F80E40E94CA016C2F812F886B94
:1004F0000E94CA016C2F80EC0E94CA01CF5FC230FB
:1005000080F3CD2FC295C695C695C3708D2F8F737E
:100510006C2F80640E94CA016C2F812F886B0E940F
:10052000CA01DF91CF911F910895CF93DF93D0E05F
:100530000DC06D2F80E00E946602C0E004C080E024
:100540000E941A02CF5FCC23D4F7DF5FD83088F344
:10055000DF91CF9108951F93CF93DF9310EE180F83
:10056000C0E0D0E012C0812F90E09C01220F331F29
:10057000220F331F820F931F8C5A9F4F8C0F9D1F8A
:100580000E9455020E941A022196C530D1055CF3E3
:1005900080E00E941A02DF91CF911F910895CF93BE
:1005A000DF93EC0103C021960E94AB028881811188
:1005B000FACFDF91CF9108950F931F93CF93DF93DD
:1005C000D82FC62F162F169516951695612F0E94B7
:1005D00066020E94EA01612F8D2F0E9466020E942E
:1005E000EA01082F612F8D2F0E946602C77081E0FB
:1005F00090E002C0880F991FCA95E2F7802B0E94F5
:100600001A02DF91CF911F910F910895CF93DF933D
:10061000CDB7DEB760970FB6F894DEBF0FBECDBF83
:100620004AE050E0BE016F5F7F4F0E948406CE011A
:1006300001960E94CF0260960FB6F894DEBF0FBEFF
:10064000CDBFDF91CF91089580919200909193005A
:10065000019690939300809392008130910531F43C
:100660000E94840180E00E94780108958230910503
:1006700051F40E948101909391008093900081E059
:100680000E94780108958330910551F40E94810100
:1006900090938F0080938E0080E00E9478010895EF
:1006A000049771F40E94810190938D0080938C00D7
:1006B0000E94840181E00E9478018FB78F778FBFFD
:1006C0000895CF93C3E009C06C2F80E00E946602BA
:1006D00080E690E00E94CF02CF5FC730A8F3CF91B1
:1006E0000895FF920F931F93CF93DF93F82E90E01E
:1006F00090939500809394000E9461038FEF8F0D7B
:100700008336B0F56F2D70E080E090E00E946705C1
:1007100020E030E048E450E40E94C6040E9438051E
:10072000062F10E2D2E3C0E021C06D2F8C2F0E9473
:10073000DC02D150DF31C8F705C06D2F8C2F0E942D
:10074000DC02CF5FC017C8F3005E05C06D2F8C2F91
:100750000E94DC02DF5FD233C8F305C06D2F8C2FFF
:100760000E94DC02CF5FC117C8F3105ECC2314F7E0
:1007700084E6F8120AC006C06EE18C2F0E94DC02EB
:10078000CF5F01C0C0E0CC23BCF7FF2039F009C027
:1007900062E38C2F0E94DC02CF5F01C0C0E0CC235B
:1007A000BCF7DF91CF911F910F91FF900895CF93E8
:1007B000DF9300D0CDB7DEB781E089838A838FB71E
:1007C00080688FBF0E9458020E949502CE01019658
:1007D0000E945D0160E080E00E94660288E790E090
:1007E0000E94CF0260E087E30E9466028EE790E0FD
:1007F0000E94CF0280919200909193000497D0F3D1
:100800001092930010929200C0908C00D0908D00B6
:1008100080918E0090918F00B601681B790B80E06B
:1008200090E00E9467054B015C01809190009091DF
:100830009100B601681B790B80E090E00E9467058B
:100840009B01AC01C501B4010E94C60420E030E068
:1008500048EC52E40E94F5050E943805B62EA72EFA
:10086000862F9A2D6C0160E08EE10E9466028B2D2E
:100870009A2D0E94060384E890E00E94CF0260E077
:100880008BE40E9466028981833099F128F48130DB
:1008900051F08230C1F068C0843009F443C0853023
:1008A00009F450C061C020918E0030918F0040E06B
:1008B00050E060E472E48FE090E00E946206C901BB
:1008C0000E94060351C020918E0030918F00220FAC
:1008D000331F220F331F220F331F40E050E060E42C
:1008E00072E48FE090E00E946206C9010E94060354
:1008F0003BC020918E0030918F00002436952795C3
:100900000794369527950794322F202D40E050E02C
:1009100060E472E48FE090E00E946206C9010E94E8
:10092000060322C0F0908E00E12C970140E050E0D9
:1009300060E472E48FE090E00E946206C9010E94C8
:10094000060312C080918E00182F110F110F00E0C6
:10095000980140E050E060E472E48FE090E00E9493
:100960006206C9010E94060387E890E00E94CF0258
:100970008091940090919500C816D90619F08B2D9E
:100980000E9471038FB780688FBF34CF0E94DA0452
:100990000C94BB050E94B40558F00E94AD0540F0D0
:1009A00029F45F3F29F00C94A40551110C94EF0534
:1009B0000C94AA050E94CC0568F39923B1F3552342
:1009C00091F3951B550BBB27AA2762177307840762
:1009D00038F09F5F5F4F220F331F441FAA1FA9F3F8
:1009E00035D00E2E3AF0E0E832D091505040E695E6
:1009F000001CCAF72BD0FE2F29D0660F771F881F47
:100A0000BB1F261737074807AB07B0E809F0BB0B39
:100A1000802DBF01FF2793585F4F3AF09E3F51054D
:100A200078F00C94A4050C94EF055F3FE4F3983E36
:100A3000D4F3869577956795B795F7959F5FC9F736
:100A4000880F911D9695879597F90895E1E0660FB7
:100A5000771F881FBB1F621773078407BA0720F030
:100A6000621B730B840BBA0BEE1F88F7E095089599
:100A70000E94D40588F09F5798F0B92F9927B75155
:100A8000B0F0E1F0660F771F881F991F1AF0BA9532
:100A9000C9F714C0B13091F00E94EE05B1E008959D
:100AA0000C94EE05672F782F8827B85F39F0B93F8F
:100AB000CCF3869577956795B395D9F73EF49095E5
:100AC0008095709561957F4F8F4F9F4F0895E89463
:100AD00009C097FB3EF490958095709561957F4F86
:100AE0008F4F9F4F9923A9F0F92F96E9BB27939534
:100AF000F695879577956795B795F111F8CFFAF444
:100B0000BB0F11F460FF1BC06F5F7F4F8F4F9F4F74
:100B100016C0882311F096E911C0772321F09EE8D2
:100B2000872F762F05C0662371F096E8862F70E038
:100B300060E02AF09A95660F771F881FDAF7880F12
:100B40009695879597F9089597F99F6780E870E0E3
:100B500060E008959FEF80EC089500240A94161633
:100B6000170618060906089500240A94121613069B
:100B7000140605060895092E0394000C11F4882329
:100B800052F0BB0F40F4BF2B11F460FF04C06F5F45
:100B90007F4F8F4F9F4F089557FD9058440F551F1B
:100BA00059F05F3F71F04795880F97FB991F61F0EF
:100BB0009F3F79F087950895121613061406551F66
:100BC000F2CF4695F1DF08C0161617061806991FD2
:100BD000F1CF86957105610508940895E894BB27C7
:100BE00066277727CB0197F908950E9408060C9491
:100BF000BB050E94AD0538F00E94B40520F0952396
:100C000011F00C94A4050C94AA0511240C94EF0582
:100C10000E94CC0570F3959FC1F3950F50E0551FCE
:100C2000629FF001729FBB27F00DB11D639FAA2741
:100C3000F00DB11DAA1F649F6627B00DA11D661F90
:100C4000829F2227B00DA11D621F739FB00DA11DB1
:100C5000621F839FA00D611D221F749F3327A00D6B
:100C6000611D231F849F600D211D822F762F6A2F07
:100C700011249F5750409AF0F1F088234AF0EE0F6C
:100C8000FF1FBB1F661F771F881F91505040A9F799
:100C90009E3F510580F00C94A4050C94EF055F3F36
:100CA000E4F3983ED4F3869577956795B795F795D5
:100CB000E7959F5FC1F7FE2B880F911D969587954D
:100CC00097F90895A1E21A2EAA1BBB1BFD010DC0C6
:100CD000AA1FBB1FEE1FFF1FA217B307E407F507EC
:100CE00020F0A21BB30BE40BF50B661F771F881FC8
:100CF000991F1A9469F760957095809590959B015E
:100D0000AC01BD01CF0108954532510520F44230B8
:100D100010F00C948F06FB011082CB010895BB27C5
:100D20004A3031F4992322F4BDE2909581959F4F8A
:100D30000C949B06BB27FB015527AA27880F991FF8
:100D4000AA1FA41710F0A41B83955051B9F7A05DFA
:100D5000AA3308F0A95DA193009779F7B111B19377
:100D60001192CB010C94B406DC01FC01672F719148
:100D70007723E1F7329704C07C916D937083629181
:0C0D8000AE17BF07C8F30895F894FFCF2A
:100D8C002020202020202020202020202020202057
:100D9C002020202020202000447574793D004672CC
:0A0DAC0065713D00252000487A0023
:00000001FF
